:020000041000EA
:10000000002008205D0100101B0100101D010010E0
:100010001101001011010010110100101101001058
:100020001901001019010010190100101F01001022
:10003000110100101901001021010010230100100E
:100040001101001011010010110100101101001028
:100050001101001011010010110100101101001018
:100060001101001011010010110100101101001008
:1000700011010010110100101101001011010010F8
:1000800011010010110100101101001011010010E8
:1000900011010010110100101101001011010010D8
:1000A00011010010110100101101001011010010C8
:1000B00011010010110100101101001011010010B8
:1000C00011010010110100101101001011010010A8
:1000D0001101001011010010110100101101001098
:1000E0001101001011010010110100101101001088
:1000F0001101001011010010110100101101001078
:100100001101001011010010110100101101001067
:10011000EFF30580103800BE00BE00BE00BE00BE7A
:1001200000BE00BEF2EB8871A8BD0010C8BD001073
:10013000A001001090A31AE7D3DEFFFF42012110B7
:10014000FF01000070D20000793512AB4FF00000C3
:100150001E49086006C881F3088810474FF05040D8
:10016000006810B14FF00000F2E70DA40ECC00299A
:1001700002D000F012F8F9E71549164A002000E015
:1001800001C19142FCD11449884714498847144958
:10019000884700BEFDE701C901C29A42FBD3704700
:1001A000C8BD001010010020F0160020A8D30010D8
:1001B0000000082000000820A8D30010001008202C
:1001C00000100820000000007047000008ED00E06B
:1001D000F01600207C310020D1450010790200107B
:1001E000C9450010F8B500BF0348044B834202D054
:1001F000034B03B118477047F0160020F01600209B
:1002000000000000064B0749C91A891048BF013198
:10021000491003D0044B0BB101481847704700BF89
:10022000F0160020F01600200000000010B5064C6B
:10023000237843B9FFF7D8FF044B13B10448AFF359
:1002400000800123237010BD601A00200000000010
:1002500068B7001008B5044B1BB104490448AFF35C
:100260000080BDE80840CDE700000000641A0020CF
:1002700068B70010000000002DE9F0432DED048B5D
:1002800087B004F0D1FA4FF4FA6000F0BBFF4E489B
:1002900004F00EFB002105A807F016FD4FF0FF3516
:1002A0004A4C4B4E06E0304604F002FB4FF47A70A5
:1002B00000F0A8FF4FF0FF334A212046059A009531
:1002C00007F0A2FA0028EED03DA5D5E90045414847
:1002D00004F0EEFA0A213D4807F07CFC9FED3E9ABF
:1002E000DFED3E9A394807F08DFC03463748002B76
:1002F0005FD007F09DFC05285BD1344807F0FCFB7C
:100300000346324808EE903A07F086FB03462F4832
:1003100008EE103A07F010FB68EE897A034617EEF4
:10032000900A08EE903A0BF0D3F922462B4601F0E2
:10033000EFFF02F03BF868EE097A034617EE900AE9
:1003400008EE103A0BF0C4F922462B4601F0E0FF0C
:1003500002F02CF868EE897A804617EE900A0BF0CE
:10036000B7F92B46224601F0D3FF02F01FF8B5EE95
:10037000C08AF1EE10FA48BF38EE298A074618EE17
:10038000100A0BF0A5F90246384616460F460BF048
:100390009FF902460B464046CDE902230BF098F93F
:1003A0008046894632463B46CDE900890C4804F038
:1003B00001FBC82000F026FF94E700BFAFF30080E8
:1003C000182D4454FB21094068B70010F016002096
:1003D0008CB70010A4B70010000034430000B443F1
:1003E000D0B7001000224FF0081110B40B4B0C4C8A
:1003F0000C48C3F88C400C4CC3F8FA00A0F1041070
:10040000C3F80241C3F806015DF8044BC3F8882025
:1004100083F89020C3F8FE10704700BFF01600204C
:100420004BFFFF000E000C000900040010B44FF455
:1004300080740C4B53F8202003EB8003C00082F043
:10044000400200F1804003F5805C02F0C00200F53C
:10045000203003F54053CCF8002041601C605DF86B
:10046000044B70470480034010B4084CC90041EAB3
:10047000820154F8202004EB8003514003F580539F
:1004800001F00C015DF8044B1960704704800340D3
:1004900030B44FF0000343EC440043EC400005252A
:1004A0004FF480740B4BC20053F8201003EB800014
:1004B00081F0400102F1804303F5203301F0C002D6
:1004C00000F5805100F540500A605D60046030BC6A
:1004D000704700BF048003400FB400B583B0049C94
:1004E000074804F0E5F93CB105A92046019104F064
:1004F00051F8044804F0DCF9012004F063F800BF6F
:1005000014B8001024B8001070B58646EFF31085BB
:1005100072B6124CD4E8CF6F0120002EFAD1C4E895
:10052000460F002EF6D1BFF35F8F4FF0010CC808C5
:1005300001F007030CFA03F31EF800C01CEA0306DF
:1005400008D14CEA030C0EF800C0C4E88F6F85F3A5
:10055000108870BD1046FFF7BFFF00BFA328002022
:10056000F8B5EFF3108572B6234CD4E8CF7F01269F
:10057000002FFAD1C4E8476F002FF6D1BFF35F8F89
:100580009A4227D80126D70810F807E002F0070C96
:1005900006FA0CFC1EEA0C0F00EBD2070DD125E089
:1005A0004FEAD20E10F80EE002F0070C06FA0CFC2F
:1005B0001EEA0C0F00EBD20718D001329342EFD2A3
:1005C0004FF0FF300023C4E88F3F85F31088984236
:1005D00007DBF8BD0023C4E88F3F85F310884FF098
:1005E000FF300029F5D00698FFF776FF4EEA0C0E93
:1005F000104687F800E0E5E7A3280020044A1078B9
:10060000431CDBB2182B28BF10231370704700BFA8
:100610001015002010B5054C82B001461F2318228A
:1006200000940348FFF79CFF02B010BD28B80010EB
:10063000B42C00204FF0E022936843F00053936005
:10064000704700BF0021044B03F12002C3E88F1F55
:1006500001339342FAD17047982800204FF0E023ED
:100660004FF08032C3F80024C3F80424C3F80824F0
:10067000C3F80C24C3F81024C3F81424C3F81824B6
:10068000C3F81C24C3F82024C3F82424C3F8282466
:10069000C3F82C24C3F8302462B67047012300F05D
:1006A0001F029340400941B1800000F1604000F515
:1006B0006140C0F8803103607047024A203042F840
:1006C0002030704700E100E00123064A410952F85A
:1006D000212000F01F008340134214BF012000209E
:1006E000704700BF00E100E001224309034900F028
:1006F0001F008240403341F82320704700E100E0B2
:10070000054A10309268054B52F82000C01A2F2875
:100710008CBF00200120704700ED00E01415002080
:10072000F8B50D46EFF3108772B6124ED6E8CF2F0C
:100730000123002AFAD1C6E8423F002AF6D1BFF3CE
:100740005F8F0D4B00F110049B680C4A53F8243066
:10075000934203D0994201D000F0BEFF064B9B6844
:1007600043F82450BFF35F8F0023C6E88F3F87F321
:100770001088F8BDA128002000ED00E01101001054
:100780002DE9F04F81468B46164683B0EFF3108378
:1007900072B6DFF8D0A10093DAE8CF1F0123002959
:1007A000FAD1CAE8413F0029F6D1BFF35F8F664B0B
:1007B00093F90040002CC0F2A080644D04EB440784
:1007C00005EB870898F8061009F110091970604BBD
:1007D000BF009B6853F829006300411B2F292FD9C4
:1007E0005C49884240F0A4801C445B4B02372F4494
:1007F000043BDB1BC3F34A036FEAC3434FF42141BD
:100800006FEAD34325F8241005EB840463804BF68C
:100810000153A380FF2348F00100E671C4F808B03B
:10082000A3714B4B9B6843F82900BFF35F8F0023F4
:10083000CAE88F3F009B83F3108803B0BDE8F08FB8
:1008400020F0010E9EF80710B1422ED84FF421433C
:10085000EB53414BB91C2944043B04375B1A2F442A
:10086000AEF104013D4CC91BC1F34A012143A8F874
:100870000410C3F34A033A492343A8F802304AF666
:10088000AA2073465B1B5B415843000D88F8076044
:1008900088F80600C8F808B048F00100CEF800104B
:1008A000BFE7D179B1422ED996469EF906C00CEB2E
:1008B0004C02BCF1000F05EB8202F2DA4BF601515B
:1008C0000EF10402A8F10407BF1AC7F34A076FEA42
:1008D000C7476FEAD7478EF8064003EB0408204C61
:1008E00005EB8803AEF8047045F82840998083F83A
:1008F00006C0DE71C3F808B093E700F0EDFE124BBE
:1009000093F9004059E7724632F8041F490514D4A0
:100910004915023102EB410101916FF00701C91B3A
:10092000019F491B3944C1F34A0141F46041C9E7C1
:10093000019300F0D1FE019B56E701F5FF1101F58F
:10094000FF511F31E4E700BF74310020141500206F
:1009500000ED00E0110100104415002000E0FFFF51
:1009600001488047A1280020F0B5EFF30585EDB2DE
:10097000EFF3108C72B62649D1E8CF2F0123002A5D
:10098000FAD1C1E8423F002AF6D1BFF35F8F214E72
:1009900040F0010EB4684AF6AA2354F825701E4AA6
:1009A0000446A41A644163431B0D77455BB21BD018
:1009B00092F906409C421CD092F912409C4223D0EE
:1009C00092F91E409C4221D092F92A409C4208BFD5
:1009D00003240FD0114A0024157813708571C1E8E3
:1009E0008F4F8CF31088F0BDB2680D4C42F8254053
:1009F000F0E7002404EB440402EB8402FF2494712A
:100A00004BF601549480E5E70124F3E70224F1E773
:100A1000A128002000ED00E0141500207431002012
:100A20001101001010B5074C82B0014605230022C9
:100A300000940548FFF794FD0028A8BFC0F13300DB
:100A400002B010BD44B8001078310020014B0B44B7
:100A5000036070479828002070B5104C104DAC42D0
:100A60000ED2FF26236863B1FFF7C8FD014620467A
:100A7000FFF7ECFFA680BFF35F8F0834AC42F1D3E1
:100A800070BDFFF7BBFD01462046FFF7DFFF267173
:100A9000BFF35F8F0834AC42E4D370BDE81600208A
:100AA000F016002010B50446FFF7A8FD01462046C9
:100AB000FFF7CCFFFF232371BFF35F8F10BD00BF93
:100AC00010B504460120FFF7A5FD034B0344236046
:100AD000BFF35F8F10BD00BF98280020024B0B446E
:100AE0000360BFF35F8F7047982800200D4B1A6892
:100AF000EFF3108172B6D2E8CFCF0120BCF1000F26
:100B0000F9D1C2E84C0FBCF1000FF4D1BFF35F8FF5
:100B100000221B68C3E88F2F81F3108840BF00209C
:100B200000217047543100202DE9F04F2DED028B4C
:100B300085B0EFF30583DBB2103B9A0818BF0122A2
:100B40004FF0010103F0030018BFAF4DAF4B08BFDA
:100B5000AF4D00EB820253F8226001FA00FB05F56D
:100B600041539FEDA78B0190C3F804B02EE0B388EA
:100B7000180440F19280B379002B40F0DC80B6F984
:100B800008100029C0F21D81736901EB410103EBDC
:100B9000C103D3E90247B7F1FF3F08BFB4F1FF3FFC
:100BA0000DD0019B05EB8301AB6A0A69D21AE31AE7
:100BB000934203D32B6A13EA0B0F00D10C61284632
:100BC00000F0C2FBA042B941C0F2FB80B6F9083088
:100BD000C5F83CB0002B0093C9DBD6F8149003EBAA
:100BE000430A284609EBCA07D7E9024800F0ACFBE4
:100BF000A04271EB0801BADBB8F1000FC0F2C3806C
:100C0000D7E90431834A934200F0ED807A88B6F93F
:100C1000080092B242EA0040984702460B4652EA68
:100C2000030100F0B080002B80F2D180B4EB020E03
:100C300068EB030839F93A30C7E902E8002B96DB84
:100C4000716903EB430201EBC202D2E90270BE45B7
:100C500078EB000C4FEA430289DBB4462CF8083FDE
:100C60000BE031F93230A446002B0DDB03EB4300DF
:100C700001EBC0005A00D0E90270BE451A4478EB7F
:100C8000000001EBC204ECDA29F83A30009BACF822
:100C90000030B38818043FF56EAF3369EFF310826C
:100CA00072B6D3E8CF0F01210028FAD1C3E8401F64
:100CB0000028F6D1BFF35F8F4FF6FF74B088002392
:100CC000316900B2B480C1E88F3F82F31088984246
:100CD000FFF651AF0746A946746906F1080807EB0D
:100CE000470E04EBCE03D3E90250B6F90830C446F0
:100CF000002B13DBB246009704E034F936309446FB
:100D0000002B09DB03EB430604EBC602D2E90271B8
:100D1000BD4270EB0101F0DA5646009FACF800705E
:100D200034F93E7024F83E30002FD8DAB3794D46BE
:100D3000002B3FF424AF0023B371B6F9083006F15D
:100D40000808591C3DD01946776903E080465A1CB3
:100D50003FF417AF03EB430207EBC200B0F802C049
:100D60001C461CF4004F9E4637F93230EED08C42C0
:100D700080ED028B05D0A8F80030318927F83210B9
:100D800034817146E3E739F83A3033813369EFF360
:100D9000108272B6D3E8CF0F01210028FAD1C3E840
:100DA000401F0028F6D1BFF35F8F7388316929F89F
:100DB0003A30009B73800023C1E88F3F82F3108894
:100DC000D5E640BF05B0BDEC028BBDE8F08F2846EC
:100DD000CDE9022300F0B8FA029A039B10EB020E51
:100DE00043EB010826E708460B6902919847002863
:100DF000C9D00299D1E9002311E700BFAFF3008009
:100E0000FFFFFFFFFFFFFFFF00800B402C310020A2
:100E100000000B40290B00102DE9F84F364C2569D6
:100E20002DB1BDE8F84F0A213448FFF70FBEDFF8B7
:100E3000E4800321404600F075FA0326C4F80C80D4
:100E4000FFF7DCFB4FF0504C2D4B26700344236121
:100E5000DCF800300F216370636961801D834FF0FF
:100E60000405A3F878504FF00505A3F890504FF013
:100E70000605A3F8A8504FF007050E214FF6FF72A4
:100E800008274FF00A0EA3F8C0504FF001094FF0A9
:100E90000C0C4FF0020B4FF0090A0D204FF00B0520
:100EA000A3F868111749A280A3F808E1A160A3F88C
:100EB00048B0A3F8F0A0A3F82051A3F838C1A3F8D4
:100EC0005001A3F83090A3F86060A3F8D8701A809E
:100ED0000D4B3046C8F820700C49DC60FFF720FC51
:100EE00049463046FFF7DAFB094B0A211F640348E5
:100EF000BDE8F84FFFF7AABD5C1500205431002073
:100F000098280020FFFF10002C310020290B001032
:100F100000200B4000000B40004870475C1500208B
:100F2000F8B59DF82070044616461D4637B900F006
:100F300013FA864265EB010100295CDB2369EFF3BC
:100F4000108772B6D3E8CF1F01220029FAD1C3E877
:100F5000412F0029F6D1BFF35F8FB4F902C0636956
:100F60000CEB4C01BCF1000F4FEAC10203EBC101D5
:100F700038DB985A4FF0000E60802069C0E88FEF90
:100F800087F310880698C1E90265086107984861EF
:100F900048880130C0F30E00012838BF0120488086
:100FA00040EA0C402169EFF3108572B6D1E8CF7F9B
:100FB0000126002FFAD1C1E8476F002FF6D1BFF309
:100FC0005F8FA1889952A4F804C02369C3E88FEF0A
:100FD00085F310880122E368217803F501538A40E4
:100FE0005A60F8BD00232269C2E88F3F87F310885A
:100FF0004FF0FF30F8BD3846F8BD00BF0146F0B5F0
:101000000069EFF3108772B6D0E8CF5F0124002D9E
:10101000FAD1C0E8454F002DF6D1BFF35F8FB1F98B
:1010200002E04C690EEB4E0CBEF1000F4FEACC050E
:1010300004EBCC0C3DDB605B002648800869C0E80F
:101040008F6F87F31088BCF80200CCE902230130CF
:10105000C0F30E00012838BF0120059BACF8020048
:10106000CCF81030069B40EA0E40CCF814300B69E7
:10107000EFF3108272B6D3E8CFCF0127BCF1000F97
:10108000F9D1C3E84C7FBCF1000FF4D1BFF35F8FFF
:101090008B886353A1F804E00B69C3E88F6F82F378
:1010A00010880122CB68097803F501538A405A6001
:1010B000F0BD00230A69C2E88F3F87F310884FF024
:1010C000FF30F0BD03464089B0EB214F37DD586952
:1010D0000A1402EB420210B500EBC2001C69EFF3E8
:1010E000108C72B6D4E8CFEF0122BEF1000FF9D117
:1010F000C4E84E2FBEF1000FF4D1BFF35F8F4288DA
:1011000089B292B28A4207D000221B69C3E88F2FAE
:101110008CF31088002010BD42F40042428001216F
:10112000002218699971C0E88F2F8CF310881C7801
:10113000DA68084602F50153A140596010BD00204D
:10114000704700BF407870472DE9F041861F41F19C
:10115000FF35B04271EB050338BF002682B038BFBF
:10116000354604460F4600F0F7F8301A65EB0103E8
:10117000012873F1000306DA2046394602B0BDE8C3
:10118000F04100F025B900F0E7F8864265EB010177
:1011900000290ADB0021174B3246009316482B46E4
:1011A0000191FFF72BFF0028E6DB4FF0000C1348FE
:1011B000134A436A9D4204D8816AB142DCD29D42FF
:1011C000DAD11368EFF3108172B6D3E8CF8F5FF0F6
:1011D000010EB8F1000FF8D1C3E848EFB8F1000FE5
:1011E000F3D1BFF35F8F1368C3E88FCF81F310880B
:1011F00020BFDEE7ED0A00105C15002000000B4068
:101200005431002010B5044600F0A6F84FF47A736C
:101210004FF0FF3C6FF00042E4FB0301BDE81040DB
:10122000844572EB01033CBF60461146FFF78CBF5B
:101230002DE9F04306460D4683B0EFF30584E4B292
:101240003CB1274B586AA8421CD2002003B0BDE82D
:10125000F083244FD7F80C9097F80080484600F0B0
:1012600073F808F1040859F828301B1A301A65EB96
:101270000101984271F1000111DB20BF184B586A3F
:10128000A842E2D39B6AB34203D3012003B0BDE876
:10129000F083401B18BF012003B0BDE8F08300F0CD
:1012A0005BF8864265EB01010029CADB0E4B38462C
:1012B000CDE9003432462B46FFF7A0FE011EC0DD0B
:1012C000074B5A6AAA4208D39B6AB34203D3054824
:1012D000FFF7F8FEB5E7AA42F9D120BFF7E700BF54
:1012E00000000B405C150020ED0A0010084AD0E910
:1012F0000003516A8B4204D8926A824203D30120D0
:10130000704700207047581A18BF0120704700BF6F
:1013100000000B4001460248C1E90023704700BFAE
:10132000ED12001010B4054B054C064AA04214BF44
:101330001846581C5DF8044BFFF7E6B8B82C00209F
:1013400000800B4060B800100346416A0A46986A64
:10135000596A8A42FAD17047034B596A0A46986A19
:10136000596A9142FAD1704700000B4010B4174AF5
:10137000536A9C46946A536A6345FAD100195941ED
:101380004FF0000228BF01220346CAB10F4B596A31
:101390004B1C08BF0B4608D04FF0FF310B460B48E3
:1013A000426A8A42FCD38A4207D1084A02E0506A64
:1013B000884202D1906A9842F9D35DF8044B704795
:1013C000024A526A9142EAD8EDE700BF00000B40A2
:1013D000074A536A9942FCD8994207D1044B02E06C
:1013E0005A6A914202D19A6A8242F9D3704700BF89
:1013F00000000B4000EB400C4FEA8C0C0CF1804CD1
:101400000CF5803CF0B51646DCF80420051FB2F55B
:10141000803F38BF4FF48032EDB238BFCCF80420A3
:10142000012D2AD94FF40067254C0CF54052176066
:1014300054F82020B2B9DCF80020012D82EA4612CF
:1014400002F0E0020CF5805632602AD94FF40061B8
:1014500044F820304FF480330CF500521160CCF882
:101460000430F0BD6769B7FBF2FE0EF1010E0EEB22
:101470004E0EBEF1030EFCD2DDE70129D2D10324CA
:101480000CF540521460DCF80820D207FBD5DCF8DC
:1014900000200B4C82EA461202F0E0020CF5805666
:1014A00032600122DCF800504D4005F00305356044
:1014B00002FA01F1DCF808200A42FBD0C6E700BFBF
:1014C000BC2C0020014B53F820007047BC2C00209E
:1014D00070B4039D04682D0345EA03451B4B002CA3
:1014E000B3FBF1F3B2FBF3F61FDB194A194B904241
:1014F00014BF4FF480424FF40042174C1A6003F5BA
:1015000080531A60A36832EA0303FBD1212200F55D
:1015100040530433016086601A600268002AFCDAD6
:101520000822C5601A6070BC7047036803F03F036F
:101530008B42DAD18368C3F30B03B342D5D1C368BE
:1015400003F4EE23AB42D0D1EDE700BF001BB700A0
:1015500000800540002002400000024030B44FF0FF
:1015600080441C4B1C60E0B11B4CA3F54053DC6174
:101570001A4C40F0010044401C62596298624FF0DE
:1015800080454FF0E061134B1548164C1D60846098
:1015900019604AB930BC4FF00042A3F580531A607D
:1015A0007047114BD861EAE74FF47A7303FB02F2FC
:1015B000B2F1807F2ABF6FF07F4313461A464FF087
:1015C00080410A4C08482360094B426030BC1960D6
:1015D000704700BF00B00D40D3C007B02D3FF84F9B
:1015E00000A00140F3FFFF0100800D401C310020EE
:1015F00000A00D40012300EB4000800000F180407E
:1016000000F5841041600360704700BF002370B58F
:10161000DB8A04460D46002242E800F2520254BF23
:101620001021042144F25220984786462B46224638
:10163000F446BDE870400A214FF48170604700BF56
:101640000023DB8A002242E800F2520201D410217A
:1016500018470421184700BF08B503460846191E5D
:1016600002DB1AB140F03000FFF7D0FF40F020005D
:10167000FAE700BF034AD2F82838002BFBD0BFF3AB
:101680005F8F704700000E400021044B044ABFF3F7
:101690005F8F43F8041B9342F9D170470C080E404A
:1016A0002C080E4010B44FF48D704FF42A64064A93
:1016B000064B07491460D06019605368002BFCDAB0
:1016C0005DF8044B704700BF0080044000A0044058
:1016D00000B0FA00704700BF08B50148FEF7FCFEF5
:1016E00084B8001038B5054C054DAC4204D254F80E
:1016F000043B9847AC42FAD338BD00BF18B700107E
:1017000058B7001010B40748074C084B084A09495D
:1017100004601A608B6832EA0303FBD15DF8044B66
:10172000704700BF002002407F3BEFEF00300240D7
:10173000F6FFF30300000240044BDB6CB3F5004FEF
:1017400003D14FF48022024BDA647047000011503D
:10175000002011504FF0E022044BD2F8881D0B43BB
:10176000C2F8883D10EE3004704700BF030330001C
:101770006FF06041044B054A19609368DB4333F016
:101780006043FAD1704700BF0030024000000240C1
:1017900010B545F25320FFF753FFBDE81040034654
:1017A0000420184710B545F25320FFF749FFBDE864
:1017B0001040034601201847FEF744BF70B5144996
:1017C000144C154D641AA610442E324628BF4422EC
:1017D0002846920009F014FEB4F5867F13D80F4A0C
:1017E000C6F1440112D02B19480803EBC000C3E92D
:1017F000002208338342FAD1CB0704D521F001033C
:10180000334445F82320064B9D6070BD4323F8E721
:101810000000001010010010000000201101001055
:1018200000ED00E0002370B52B4C82B0C4F884308A
:10183000FFF738FF0122294BDA63636C012BFCD1DF
:101840000321264A244B11639C6B012CFCD10226F8
:10185000052521460523224A22480096FFF738FE37
:1018600021462B46204A21480095FFF731FE0022F1
:10187000042031461E4BFFF7BDFD214628460022BD
:101880001C4BFFF7B7FD0022082011461A4BFFF74B
:10189000B1FD002209201146174BFFF7ABFD0022D6
:1018A00006201146134BFFF7A5FD0022114B072020
:1018B0001146FFF79FFD0420FFF704FE00240F4BA5
:1018C000A3FB0035AD0CE0B229460134FFF792FED0
:1018D000062CF8D102B070BD00000140003001407C
:1018E000002F685900000540008C864700800540A5
:1018F000001BB70080D1F008006CDC0283DE1B43C4
:101900002DE9F04FC1F30A5916461F4687B0A9F2D8
:10191000FF38B9F1000F51D040F2FF74A1454DD00E
:101920000024C9F57F720332201801EB025101F047
:10193000FEF885A3D3E9002300F0EAFC0022844BE3
:1019400004460D4600F0E8FD48B120462946002235
:10195000804B00F0A3FC04460D46A9F2FE38B8F116
:10196000000F20D03046394600227B4B00F0C0FDEE
:1019700040B1B8F1000F4FF0000010DB774907B01D
:10198000BDE8F08F304639460022754B00F09CFDD3
:10199000814668B3B8F1000F4FF00000EEDB002184
:1019A00007B0BDE8F08F32463B462046294600F09E
:1019B00089FC07B0BDE8F04F00F076BA01F0B7F847
:1019C00061A3D3E9002300F0A3FC0022604B04468E
:1019D0000D4600F0A1FD0028C4D020462946002273
:1019E0005C4B00F05BFCA9F2FE3804460D46B9E7FB
:1019F0003046394600F01AFA0B4602463946304660
:101A00001F46164600F04AFC82468B461A22CDE954
:101A100000AB00F0E9F900F009FAC1F30A5340F213
:101A2000FF7C82468B464BB1634507D01A2BD5BF4E
:101A3000CA46824601F0004BA1F1D07B39463046C0
:101A400000F0E6FC8146404600F0BEFC02460B4634
:101A5000CDE9022352465B4600F034FC06460F46B1
:101A600000F0E4F902460B463046394616461F465A
:101A7000CDE9046700F012FC06460F46DDE90001DF
:101A800052465B4600F00AFCDDE9022300F01AFC36
:101A900032463B4600F0EEFBCDE90201484600F03D
:101AA00093FC22462B4600F00DFC06460F4600F044
:101AB000BDF982468B463046394652465B4600F0B9
:101AC000EDFBDDE9022300F0D5FB06460F46DDE91C
:101AD000000122462B4600F0F5FB32463B4600F063
:101AE000C9FB00F0E1F9C1F30A5440F2FF730D465F
:101AF0000646002C3FF443AF9C423FF440AFDDE983
:101B0000040100F085FC08FB09F959468144504660
:101B100000F07EFC00EB09031C44002C0BDD40F2BE
:101B2000FE7294420BDD05F0004545F0FF410020B8
:101B300041F4E00123E7002005F000411FE7002207
:101B400005EB035190191AE7EF39FAFE422EE63FF2
:101B50000000E03F0000F03F0000B0400000F07FD8
:101B60000000B0C0012A2DE9F04706460F4600F0FC
:101B7000818002EBD2756D10012D144666D090461F
:101B8000002AB8BF02F103084FEAA808B8F1010F14
:101B900079D09146002AB8BF02F107094FEAE90956
:101BA000B9F1010F6CD09246002AB8BF02F10F0ABA
:101BB0004FEA2A1ABAF1010F68D0A2F120031F2BB5
:101BC00067D90022FFF7CEFF02460B4600F07AFBF2
:101BD00002460B461046194600F074FB1AF0010F3E
:101BE00002460B4605D032463B4600F06BFB0246F0
:101BF0000B461046194600F065FB19F0010F02462E
:101C00000B4605D032463B4600F05CFB02460B46D5
:101C10001046194600F056FB18F0010F02460B461D
:101C200005D032463B4600F04DFB02460B461046BF
:101C3000194600F047FBED0702460B4608D5324631
:101C40003B4600F03FFB02460B4601E002460B46D6
:101C50001046194600F036FBE40702460B4605D550
:101C600032463B4600F02EFB02460B461046194614
:101C7000BDE8F08702460B4610461946BDE8F087DE
:101C800002460B46C4E702460B46D0E702460B4627
:101C9000AFE702460B469DE700292DE9F0471646BF
:101CA0001F4604460D4680F29280C3F30A53A3F206
:101CB000FF33002B28DBD3F1340325D44FF0FF3260
:101CC000A3F1200802FA08F902FA03F1C3F1200E89
:101CD00041EA090122FA0EF941EA09019A4026EA8D
:101CE000020227EA01010A430ED1342B3BD026FA27
:101CF00003FC07FA0EFE4CEA0E0C27FA08F04CEA39
:101D0000000C1CF0010F2ED105F100410D46A0463C
:101D100089463046394600F07BFB2B0D8246024651
:101D20002DD040F2FF70834229D0C5F31301214327
:101D300025D12A4AA3F2FF335245B8BF5246824208
:101D4000A8BF024602FB03F101F2FF33002B3BDD8B
:101D500040F2FE7293423DDC0022214800EB015329
:101D60001946104609E03B463246204605F100413F
:101D7000FFF792FF01F100431946BDE8F087BAF181
:101D8000000F16D00AF12003402B15D8BAF1000F2E
:101D900009DA42464B460020114900F0B9FA804664
:101DA0008946CAF1000240464946BDE8F047FFF7C0
:101DB000D9BE00200A49E0E732463B464046494644
:101DC000BDE8F047FFF79CBD00200021D5E7804625
:101DD00089469EE700200349CFE700BF00F8FFFFD8
:101DE0000000F03F0000F07FC1F30A53C3B110B50B
:101DF00040F2FF7E73450ED01344002B8C460BDD62
:101E000040F2FE718B420CDD00200CF0004C4CF0D7
:101E1000FF4141F4E00110BD002001F0004110BD80
:101E2000704700230CEB0251181810BDC1F30A5380
:101E3000A3F2FF335A1C8C462ADB2DD0342B26DA32
:101E4000012270B502210546C3F13304C3F1130E1C
:101E5000133B22FA03F302FA0EFE4EEA030EA4F13C
:101E6000200002FA04F3C4F120065B1921FA06F6F9
:101E700001FA00F001FA04F14CEB0E0C30434A4237
:101E800060EB400E0EEA0C0102EA030070BD7047E1
:101E9000002001F00041704701F0004C4CF07F51F0
:101EA000002041F440117047F8B540F6FF73B3EBE2
:101EB000115F40D00022284B04460D4600F004FB81
:101EC000C8BB002220462946244B00F011FB0646E1
:101ED00010B100202249F8BD20462946FFF7A6FF91
:101EE00000F096FA074600F06FFA02460B462046CD
:101EF000294600F0D3F916A3D3E9002300F0E2F954
:101F000000F097FCC1F30A5340F2FF7405460A46FD
:101F1000002BE0D0A342DED03B44002B0EDD40F28C
:101F2000FE718B420EDD02F0004242F0FF4130466E
:101F300041F4E001F8BD00200021F8BD304601F079
:101F40000041F8BD701902EB0751F8BDAFF30080F6
:101F5000EF39FAFE422EE63F0000B0C00000B0406C
:101F60000000F07F2DE9F04F16461F4683B0002297
:101F7000AB4B04460D4600F081FA00287FD13B0DA3
:101F8000C7F30A59B346B84640F2FF7A0193B9F154
:101F9000000F40D0204629460022A24B00F06EFAE6
:101FA00000283DD0D14536D0019B534500F09280AA
:101FB0001A4640F6FF739A4200F09180994AA9F2BE
:101FC000FF39B9F1000FC0F20281C9F13409B9F14A
:101FD000000F17DD4FF0FF33A9F1200C03FA0CFCC2
:101FE00003FA09F1C9F1200023FA00F041EA0C01DB
:101FF000014303FA09F32BEA030328EA01010B4327
:1020000040F0E58032463B462046294603B0BDE815
:10201000F04FFFF741BE0020814903B0BDE8F08FCB
:10202000C5F30A532A46290D73BB002FA9F2FF33CB
:1020300034DB002B53DBD3F1340350D44FF0FF32A9
:10204000A3F1200002FA00F702FA03F1C3F120061F
:10205000394322FA06F739439A402BEA020228EA6A
:1020600001010A433BD1342B09D02BFA03F308FAC0
:1020700006F628FA00F033430343D8072FD520464D
:10208000294603B0BDE8F08F514540D1002F4FF0F5
:10209000000020DA002103B0BDE8F08F40F2FE31ED
:1020A000894517DDD3F1340314D44FF0FF31A3F188
:1020B000200401FA04F601FA03F0C3F120053043CD
:1020C00021FA05F6304399402BEA010127EA000086
:1020D000014307D00020544903B0BDE8F08F002031
:1020E0000021D8E7342B4FF0000009D02BFA03F37E
:1020F00007FA05F52B4327FA04F42343D907EAD559
:1021000002F0004242F0FF4141F4E00185E740F671
:10211000FF7081426DD1002FA9F2FF3329DB002B24
:10212000D8DBD3F13403D5D44FF0FF32A3F1200034
:1021300002FA00F502FA03F1C3F12004294322FA5E
:1021400004F529439A4026EA020227EA01010A43DC
:10215000C0D1342B46D026FA03F307FA04F427FA49
:1021600000F023430343DA074FF00000B3D52F49B3
:1021700053E740F2FE329145B1DDD3F13403AED4E2
:102180004FF0FF32A3F1200002FA00F502FA03F14A
:10219000C3F12004294322FA04F529439A4026EA90
:1021A000020227EA01010A4399D1342B1DD026FAF5
:1021B00003F307FA04F427FA00F023430343DB0791
:1021C0004FF000007FF566AF4FF0004125E7002A91
:1021D00080DB32463B462046294603B0BDE8F04F3F
:1021E000FFF78EBB0020114917E700204FF0004198
:1021F00013E7019951450BD0019981427FF4DFAE7D
:1022000040F2FE3293424FF000007FF764AF41E7A7
:1022100040F2FE3293424FF000007FF73BAF5AE7A7
:102220000000F03F0000F0BF0000F07F0000F0FF72
:1022300086B003B451FC0804CDE9020151FC090445
:10224000CDE9040151EC0A04CDE9060103BCF047D5
:10225000BDE800504EEC00C4BDE800504EEC01C497
:10226000BDE800504EEC02C400BD000000B5FFF711
:10227000DFFF02E010FE30F4F8D441EC100443EC30
:10228000112400EE010410EE010480EE200451EC54
:102290001004704700B5FFF7CBFF02E010FE30F4EA
:1022A000F8D441EC100443EC112400EE010410EECC
:1022B000210480EE200451EC3004704700B5FFF794
:1022C000B7FF02E010FE30F4F8D410B541EC100472
:1022D00043EC112451EC040453EC0524A0FB024C04
:1022E0005FF0000EE0FB03CEE1FB02CE4CEC20449D
:1022F0000024E1FB03E444EC30E480EE200451ECE4
:102300005004BDE81040704700B5FFF791FF02E0B0
:1023100010FE30F4F8D441EC100443EC112451ECDD
:102320002104A0FB01126FEA820252FB100052FB53
:1023300012F252FB1000A0EBD07C53EC04245CFBA7
:1023400013F153EC1524A1FB022001FB030053EC15
:102350004424A2EB000050FB1CF24FEA111312EBD5
:10236000017043EBE27140EA515020EA915020F0B5
:10237000070053EC7524A0FB023C53EC752400FBD2
:1023800003CC01FB02CC53EC0424ACEB824C40EABE
:102390005C70A0F1010041EC400480EE200451EC9F
:1023A0007004704700B5FFF743FF02E010FE30F401
:1023B000F8D441EC100480EE220410EEB204704711
:1023C00000B5FFF735FF02E010FE30F4F8D440EC22
:1023D000700400EE010410EE210480EE200451ECA4
:1023E0003004704700B5FFF723FF02E010FE30F421
:1023F000F8D440EC600400EE010410EE210480EEFD
:10240000200451EC3004704700B5FFF711FF02E0E3
:1024100010FE30F4F8D441EC800400EE010410EE1C
:10242000010480EE400410EE1304704700B5FFF77E
:10243000FFFE02E010FE30F4F8D441EC800400EE20
:10244000010410EE010480EE400410EE33047047E6
:1024500000B5FFF7EDFE02E010FE30F4F8D441ECD9
:10246000100443EC112400EE010410EE3004C0F31C
:102470000070704700B5FFF7DBFE02E010FE30F49D
:10248000F8D441EC100443EC112400EE010410EEEA
:102490003004C0F38070704700B5FFF7C9FE02E05A
:1024A00010FE30F4F8D443EC102441EC110400EE9B
:1024B000010410EE30F48CBF01200020704700BFF3
:1024C00000B5FFF7B5FE02E010FE30F4F8D443EC9F
:1024D000102441EC110400EE010410EE30F42CBF86
:1024E00001200020704700BF00B5FFF7A1FE02E009
:1024F00010FE30F4F8D441EC100443EC112400EE4B
:10250000010410EE30F42CBF01200020704700BF02
:1025100000B5FFF78DFE02E010FE30F4F8D441EC78
:10252000100443EC112400EE010410EE30F48CBFD3
:1025300001200020704700BF404261EB410140F2A2
:10254000F334B1FA81F20C2A0CD2153211FA02F3EB
:10255000C2F12002D04021FA02F12244584141EB5D
:102560000251704769B1C2F12B0230FA02F3C2F195
:102570002002914090401943A4EB020201EB02516A
:10258000704701004FF00000A4F12004D9D170473A
:10259000012767F31F5117FA03F817D0A0FB0807AC
:1025A00001FB0871A1FB06785FEAD8469219A6FBE9
:1025B000047806FB0588090351EA1051D7EB003077
:1025C00061EB0801A94238BF70470BE00C330127CB
:1025D00017FA03F80FD0A0FB080701FB0871A94206
:1025E00038BF704708BFA04238BF7047001B61EB7F
:1025F00005010132704703F1200311FA03F6D3F10C
:102600002003D840D940304370470000000000004C
:10261000000000000453B1086018850FC8E5F22AD5
:102620006E07271E0D12B2210412572F12557CBCC3
:10263000DA30723F17A717A55531994E9D0DBF0A85
:10264000EEE0AB5FE3EF6D9C7636AD6F697BCCE37C
:102650003D62BD7EF0810682F3FA428F37D5B78A9C
:102660005313C89E7FABB320491570AF0000000024
:1026700000000000025E88155580FF00907806B1CA
:10268000A602FE01DC4E21F0EB88FB027A7C801F63
:102690001615F8033C5DA9D110A9F304AA466CF500
:1026A000C146EE05FF65E4EB09F0E70613C00C9E9A
:1026B000C3A6E007E1BFEC91C46CD808D5AF5EFFBC
:1026C000DC43CF09466A72E4D72DC50A237E6E1912
:1026D0007B2CBA0BBFF571648741AE0C61DFB88CFF
:1026E000B86EA10D09A9856DC5B5930E3153B1081A
:1026F0006018850F3071E498359875105915550597
:1027000080FF0F0009C3EB8F80FB2F00B1910E9A61
:1027100082F34F001FE7FD2287E76F00C3A09A29CD
:102720008FD78F004F4366AC9BC3AF00412A83A96C
:10273000ADABCF004FB7B41EC68FEF00B6815F09B7
:10274000E66F0F01678589660E4C2F011A52DA3247
:1027500040244F01483A9B6A7CF86E01FF81B7091B
:10276000C4C88E019C8DBC0B1895AE017010DA6B3D
:10277000795DCE013A3BE224E921EE0138739533CD
:10278000427FECA03114FAF5BD8689916B02FAE61E
:10279000E0F29183E682120713A85177212621687F
:1027A0006AB2736A9D0DBF0AEEE0AB5F19B4E0B781
:1027B0001CB66A549596E53DEF07A548D1CBE55583
:1027C000DC0E4E3CCE68ADE839B5A432CB3CFA966F
:1027D000D9569A28C9B21CA1F9FCAE21864B6BE5EB
:1027E0008AD2F0160453B1086018850F02C00C9EFF
:1027F000C3A6E0070000000000000000AC79CFD1C4
:10280000F71772B1293BAAB84FEAC12040F0004047
:10281000490043F1200340F20001C3F6F071C3F117
:102820000B0320FA03F038BF7047404261F100010A
:1028300070475FEAD17CC1F30A53A3F2FF330C2B3C
:1028400062DA13F1200FDFDD2DE9F0413C4C70CC52
:102850004FF00002FFF79CFE1CF0010F04D06FEA5E
:102860000202201A65EB010102F2FE3C40F2FE7307
:102870009C455CD20A0F334B03EBC2030CCB02F036
:102880003F0545F04005801A99410A0E2E4B03EB97
:10289000C20318CB02F580725543C01AA1414A0DFC
:1028A0002A4B03EBC20318CB124402F5805205FBFE
:1028B0000255C01AA1418A0252EA905242F1000226
:1028C00082FB02345B0D53EAC423C01841EB545120
:1028D00084FB02344FF0553383FB043454FB11F373
:1028E00004EB930410EB440241EBE473E900A1FB19
:1028F0000240C1FB0301400A50EBC1504FEA512195
:1029000051EB0C51BDE8F081B3F5806F07D150EA6F
:1029100001320CBF21EAE17141F40021704700202F
:1029200000211CF0010F08BFC7F6F07170474FF08F
:1029300000004FF00001A8BFC7F6F071BDE8F081BC
:10294000FC2700100C2600106C260010FC2600103E
:1029500040F20001CFF6F0710020704750EA0132DA
:1029600018BF41F4002170477FEAA65540F0198155
:102970004FF4805420E18CEA11331B0640F0EE80C6
:10298000BCF1000F67D1C90451EA5031C004B1FA5B
:1029900081F4202C4BD20125A540A0FB052301FB8F
:1029A0000533A0FB03C5A1FB02C6E1FB6356B2EBF6
:1029B000152263F10003B2EB066273EB1623A0FB52
:1029C00006C7A1FB05C8E1FB66784FF05535A7FBAC
:1029D00005C65FF0000CE8FB056C16EB0C064CF12D
:1029E000000C12EB963243F1000312EB8C4243EBE6
:1029F0009C3358FB11F55FF0333755FB11F656FB4E
:102A000017F8A5EB581756FB11F5C2F6802656FBB2
:102A100015F507EB1537B2EB472063EBD751C4F53B
:102A20008064A4F11504FFF78CFDBDE8F081B0FAD5
:102A300080F410FA04F1A0FB01234FF00000B0EB8A
:102A4000132061F10001C4F58064A4F13504FFF79F
:102A500078FDBDE8F081890451EA9031800440425C
:102A600061EB4101B1FA81F4202C4ED2013C0125E9
:102A7000A540A0FB052301FB0533A0FB03C5A1FB7B
:102A800002C6E1FB635612EB152243F1000312EB81
:102A9000066253EB1623A0FB06C7A1FB05C8E1FBAA
:102AA00066784FF05535A7FB05C65FF0000CE8FBD4
:102AB000056C16EB0C064CF1000C12EB963243F150
:102AC000000312EB8C4243EB9C3358FB11F55FF093
:102AD000333755FB11F656FB17F805EB581756FB25
:102AE00011F5C2F6802656FB15F507EB153712EBEC
:102AF000472043EBD751C4F58064A4F11504FFF7D8
:102B000020FD41F00041BDE8F081B0FA80F410FAF8
:102B100004F1A0FB01234FEA1320C4F58064A4F163
:102B20003504FFF70EFD91F00041BDE8F0815FEA4A
:102B3000410CBFF40DAF5FEA5C5C3FF409AFACF24F
:102B4000FF3CBCF5806F3FF409AF012262F31F51D7
:102B50002DE9F041BCEBEC7F3FF40DAF0C0C4E4D7A
:102B600005EBC40595E80C0002F03F0505F14005B2
:102B7000A5FB000605FB01616FEAE14404F01F04B8
:102B8000464D05EBC40560CD521943EB060304F531
:102B90008074A4FB000604FB01667FEA26643FF410
:102BA000E3AE3F4D05EBC40522CD521843EB0503C0
:102BB00041F2010505EB44046404A4FB0050C4EB9E
:102BC000C401E4FB060180EAE17481EAE175A5FB3A
:102BD0000567A4FB05487F084FEA360616EB080692
:102BE00047F100078C0254EA905444F10004801B22
:102BF00061EB070154FB14F555FB14F655FB15F773
:102C00004FF0553456FB14F6B6EB173610EB860032
:102C100041EBA671101A63EB0101224A24CA1CF190
:102C2000010C0BDDA2FB0C230024E5FB0C34121A73
:102C30008B4164F100045FF080410CE0DCF1000C9A
:102C4000A2FB0C230024E5FB0C3482184B4144F119
:102C500000045FF040414CB91C0013000022B1F1A8
:102C600000711CB91C000023B1F10071B4FA84F5A5
:102C7000A5F11D06A1EB0651AC4013FA05F0C5F114
:102C80002005EB401C43EA401043C00A50EB44507F
:102C900041EBD421BDE8F081FC2600106C26001029
:102CA000FC260010FC27001008B5B7EE007A2DEDC9
:102CB000028B08EE100A77EE487A38EE077A67EE54
:102CC000877A17EE903A13F0FF4F01D0002B10DBFC
:102CD000F5EE407AF1EE10FA10D4B1EEE77A18EE84
:102CE000100ABDEC028BBDE8084017EE101A00F088
:102CF0003BB84FF0FF40BDEC028B08BD17EE900AC9
:102D000008F002FD07EE100AE9E700BF51F4800069
:102D1000704703D1B3F1FF4F3CD106E050F480007F
:102D20007047FBD1B3F1FF4F49D1013801391BE0A6
:102D300003F00043B2F5000F02D20BE002F00042B4
:102D400043EC102A80EE201A1EE003F00043B2F597
:102D5000000F04D241F07E5106E002F0004243EC45
:102D6000102A80EE801A24E020F0004221F0004377
:102D700043EC102A9A4214D880EE201AB3F5000FC3
:102D8000D6D3B2F5000FD9D3B3F1FF4FBED8B2F10D
:102D9000FF4FBED200294CBFDFF82CC14FF0000C12
:102DA00011E080EE801AB3F5000FCED3B2F5000F1C
:102DB000D3D3B3F1FF4FA9D8B2F1FF4FB1D2DFF8AF
:102DC00004C191F0004142A2F0EE411AFFEECD1A8B
:102DD00011EE903A5B0853F1000302EBC302D2ED0F
:102DE000012A22EE810A71EE620AF7EE002A32EE23
:102DF000800A32D080EE800A1268002948BF524211
:102E00006244002848BF5242002A07D55242B2FA13
:102E100082F39A400BD0C3F5C07305E0B2FA82F397
:102E20009A4004D0C3F18003120A42EBC35220EE51
:102E3000001ADFED261A21EE001A90EA010F21EEAA
:102E4000211A02EE102A30EE410A54BF32EE000A77
:102E500032EE400A10EE100A704780EE800A624699
:102E6000002848BF5242002A07D55242B2FA82F3E4
:102E70009A400BD0C3F5C07305E0B2FA82F39A40D2
:102E800004D0C3F18003120A42EBC35220EE001AB1
:102E9000DFED0E1A21EE001A90EA010F21EE211A41
:102EA00002EE102A30EE410A54BF32EE000A32EE32
:102EB000400A10EE100A10F0FF4F18BF704700F0E4
:102EC00000407047A9F6433251ED8764ABAAAA3E91
:102ED000000000000000000023EEFF00BB01003DE9
:102EE000DC88FE012A997F3D700AFE020312C03D74
:102EF00028D2FA036803003E70ABF504EAFD1F3EDA
:102F0000F856ED05DCDD3F3EA0CFE4062514603E1B
:102F1000E0D3D8075D21803E6004C608A500903E3E
:102F20007067B2099214A03E506D990A7713B03EB3
:102F3000106D7A0BA0F4BF3EE03C590C9F01D03ECF
:102F4000D0EB330DBC1BE03EB07A080EBD1FF03E47
:102F50008061D50E98EFFF3E80DEA10FBF0E083FC7
:102F6000009D631031EC0F3FE0902611FD0C183FDF
:102F7000C014E0116500203FE0519612BE08283FC2
:102F800000D446137D0A303FC0C7EF132FEE373F02
:102F900060899814320C403FC0A8371542EF473F74
:102FA00060CCD41530F64F3F80F26E163415583F82
:102FB000C075FF161EEF5F3FA01691174D18683FB2
:102FC000A05A1B182217703F6005A1187110783F96
:102FD0006040211951F47F3F704700BF2DE9F04F49
:102FE00083B09946DDE90DAB0F9B884611469A07E1
:102FF000074616D1DA453AD20C460D46ABEB0A0627
:103000000E4422464B46414620200134B847B44284
:10301000F7D12946BAF1000F08D1204603B0BDE828
:10302000F08F0C46BAF1000F10D00E4655460C9B9F
:103030002E449A440191721B4B46013D41461AF8B9
:10304000010D3446B847002DF5D101990F9B9B0720
:10305000E3D5651AAB45E0D922464B4641462020D0
:103060000135B8475D4504F10104F5D3D5E7BAF160
:10307000000FDAD10C46D0E72DE9F04F0F9FDDF8B5
:1030800024E017F0020F0A9C9DF82C900E9DDDE9BC
:103090000C8629D1002D6FD1B44225D2202C07F007
:1030A000010B00F0128104F1FF3C4FF0300AF444B0
:1030B00001E0202C7AD00134A6420CF801AFF8D8F8
:1030C000BBF1000F10D0AC420ED2202C74D004F112
:1030D000FF3C4FF0300AF44401E0202C29D00134A9
:1030E000AC420CF801AFF8D117F0100F3AD017F43A
:1030F000806F28D11CBBB8F1100F00F0CA80B8F166
:10310000020F00F0D48030248EF800400124B9F181
:10311000000F67D17E0740F1AA802B260EF80460CD
:103120000134CDE90B57CDE909E4BDE8F04FFFF7D5
:1031300055BFFC0640F189807C0535D42024A64289
:103140006AD0AC4268D0B8F1100F00F08780B8F1B7
:10315000020F5AD0202CE4D0264601344FF0300C18
:103160000EF806C0202CD2D1CDE90B57CDE909E4E9
:10317000BDE8F04FFFF732BF17F0010B3ED0B9F1B9
:10318000000F47D117F00C0F44D1B4429BD2202C32
:1031900089D1202D10D8FC0657D57C0555D4202E7A
:1031A00000F0B980202D10D02024CCE7BBF1000F17
:1031B00000F0A580202DBCD9FC0646D57C0544D462
:1031C000202E00F0A880202D3FD12C461F26B8F1DC
:1031D000100F7FD0B8F1020FC0D14FF0620C0EF883
:1031E00006C0B7E72D260EF804600134CDE90B5771
:1031F000CDE909E4BDE8F04FFFF7F0BEB442BFF4FB
:1032000073AF202C7FF44FAFD6E7202C89D0264611
:103210000134E2E7013DB8E7661ED8D1B8F1100FDE
:1032200064D0B8F1020F7FF46EAF62268EF80060B2
:10323000302644468EF80160B9F1000F3FF46AAFC2
:10324000D0E7B8F1100F7FF46CAF2024CDE90B5715
:10325000CDE909E4BDE8F04FFFF7C0BEBE060ED4CD
:10326000202CF2D078260EF80460013472E73E0775
:103270007FF557AF20260EF80460013451E7202C6B
:10328000E3D04FF0580C0EEB040686F800C0013472
:1032900060E7BE0617D558248EF8004030248EF81B
:1032A00001400224B9F1000F3FF434AF9AE76224E1
:1032B0008EF8004030248EF801400224B9F1000F4E
:1032C0003FF428AF8EE77824F2E7BBF1000F7FF4DC
:1032D00062AF71E717F0200F0CBF4FF0780C4FF082
:1032E000580CA61E0EF806C0013C35E7BC06EAD510
:1032F00058248EF8004030248EF80140DDE717F0A6
:10330000100F3FF40EAF17F4806F9AD1202E7FF488
:1033100018AF1F265BE734461F2658E700B97047F1
:1033200001F084BA10B1D1E900311847704700BFED
:103330002DE9F04F9FB09DED287BDDE92AA558ECE3
:10334000177B83461E460D91109243463A463846F7
:1033500041468DED087B2C9CFFF77EF8002840F05D
:10336000D880384641464FF0FF32754BFFF7D4F80E
:10337000002840F0CE80384641464FF0FF326FF4CF
:103380008013FFF78DF8002840F0C380DDE908784E
:103390000022384641460023FFF782F8002840F01B
:1033A000C081CDE90A78DDE90A2390461F4614F46E
:1033B000806308BF4FF0060A139304F4006258EAD2
:1033C0000703119240F0C080002A00F0A2819FED17
:1033D0005A7B00278DED0E7B4FF00009BA45CCBF1C
:1033E000AAEB070A4FF0000A4F46C8BF0AF1FF3A9E
:1033F00044F480644D4594BF4FF00008A5EB0908E4
:1034000014F00203119304D0B9F1000F18BF4FF06C
:1034100000083FB1DDE90A01DDE90E23FEF778FF80
:10342000CDE90A01DDE9080100220023FFF738F8A1
:1034300030B1DDE90A01024601F10043CDE90A237A
:103440009DED0A7BCDE902A8DDF834A024F40063E9
:1034500004938DED007B334651465846109A00F098
:1034600097F98046B9F1000F4FD014F0200F0246B3
:1034700000F1010433460CBF652045205146D84772
:1034800009F1FF3087EAE77C0DF1580900224B462D
:10349000DFF8B080ACEBE77C4FEAD77E01E0202A72
:1034A00010D0E246A8FB0C71C90801EB8107ACEB18
:1034B00047073037BAF1090F8C4602F1010203F8D1
:1034C000017BECD805230590069300200A230D9F6D
:1034D000CDE90330CDE9012E334622463946584620
:1034E000CDF80090FFF7C8FD119B80466BB1109B93
:1034F000C41AA54209D94246334639462020013430
:10350000D847A54208F10108F5D840461FB0BDE8EC
:10351000F08F9DED087B33465846109A0D998DED3E
:10352000287BCDE92B54CDF8A8A01FB0BDE8F04F03
:1035300000F02EB9AFF30080000000000000000092
:10354000FFFFEF7FCDCCCCCCC7F30A50A0F2FF3009
:10355000FEF73AFF8AA3D3E90023FEF7B3FE8AA35E
:10356000D3E90023FEF786FEC7F31307CDE90E016A
:1035700047F07F51404600227B4B41F44011FEF75B
:103580008DFE6BA3D3E90023FEF79CFE02460B469B
:10359000DDE90E01FEF76EFEFEF73AFF0746FEF785
:1035A00013FF65A3D3E9002380468946FEF78AFE10
:1035B00000226E4BFEF75EFEFEF72AFF03464946E9
:1035C000404612935EA3D3E90023FEF77BFE8046BC
:1035D00012988946FEF7F8FE5BA3D3E90023FEF7B5
:1035E00071FE02460B4640464946FEF757FE02462C
:1035F0000B4680468946FEF765FE42464B46CDE9BE
:103600000E0140464946FEF735FE0022CDE9140181
:10361000DDE90E01564BFEF77BFE0022554BFEF70F
:1036200029FE02460B46DDE90E01FEF771FE00227F
:10363000514BFEF71FFE02460B46DDE90E01FEF779
:1036400067FE42464B468046894600204FF0804147
:10365000FEF724FE02460B4640464946FEF70AFEA8
:1036600002460B46DDE91401FEF752FE0022434BF1
:10367000FEF700FE129B002203F2FF3C4FEA0C53C0
:10368000FEF720FE80468946DDE90A0142464B46A8
:10369000CDE90E89FEF704FF68BB4346494607F1B2
:1036A0006302C62A119A8CBF4FF005094FF0040936
:1036B000002A3FF49FAE0B433FF48EAEDDE90A01D2
:1036C00023A3D3E90023FEF713FF48B1DDE90A0184
:1036D00021A3D3E90023FEF7E3FE00287FF47CAEAC
:1036E000BAF1000F3FF486AE139B002B3FF482AE7D
:1036F0000AF1FF3A7EE600221E4B40464946FEF79D
:1037000007FE0A4601460346CDE90E12013F114667
:10371000C5E79FED137B17464FF004098DED0E7B37
:1037200068E608F100430A970B933CE6AFF300808C
:1037300061436F63A787D23F71A379094F930A4012
:103740001655B5BBB16B0240EF39FAFE422EE63F8B
:103750002D431CEBE2361A3F0000000080842E410E
:1037600000000000000000000000F83F0000E03F03
:1037700000002C4000002440000018400000F03FF2
:10378000FB799F501344D33FB3C8608B288AC63F50
:103790002DE9F04F97B0DDE92089CDE90401DDE99D
:1037A000224BCDE90623404642464B464946DDF8CA
:1037B00090A0FEF751FE002840F0C58140464946E2
:1037C0004FF0FF326FF48013FEF76AFE002840F0DE
:1037D0001D81404649464FF0FF32C14BFEF79CFE2B
:1037E000002840F0E380B8A3D3E9002340464946CF
:1037F000FEF792FE002840F0CB80B5A3D3E900236A
:1038000040464946FEF74CFE002840F0C180404645
:10381000494600220023FEF743FE002840F0E080E6
:103820001AF480650D9000F0E980092C40F2968131
:103830000EAB1A460C9330210023A4F10905013385
:10384000202B02F8011BA4EB030600F03A81AB42E7
:10385000F5D19FED9D7B8DED087B49464046FEF7F7
:10386000D7FD0446FEF7B0FD02460B4640464946EA
:10387000FEF714FDDDE90823FEF724FD02460B46A2
:10388000CDE90A23FEF7D6FD0746FEF7AFFD024657
:103890000B46DDE90A01FEF701FD02460B46CDE9C4
:1038A0000A2300228F4BFEF737FE002800F0DB8052
:1038B00001373846FEF79AFDDDE90823FEF718FECA
:1038C00008B100270134002E40F0B1802046FEF7F9
:1038D0007BFD02460B4640464946FEF7DFFC0022D0
:1038E000804B06460F46FEF7DBFD40B930463946B1
:1038F00000227C4BFEF710FE002800F015810C9B87
:10390000691E7948194410E080FB0462C3EBA203EE
:1039100003EB8302A4EB420404F1300201351C46A0
:1039200001F8012F002B00F0AB80202D4FEAE4734B
:10393000EAD10AF00303012B1CD1BBF1000F19D00F
:103940000D9B002B40F0F9801AF00C0F40F0F58031
:10395000AB4540F2D380202D0BD030220C996B1E4A
:103960000B4401355D4503F8012F00F08D80202DBB
:10397000F7D12025DDE90623DDE904010C9CCDE922
:1039800002BA01950094FFF729FB17B0BDE8F08F4C
:10399000CDE92089DDE90623DDE90401CDE923BA7B
:1039A000229417B0BDE8F04FFFF7C2BC4F4DCDF8E1
:1039B0008CA00AF0040ABAF1000F4D4C18BF2C4637
:1039C000DDE90623DDE9040120940CBF032404246F
:1039D000CDF888B0219417B0BDE8F04FFFF7FEBADC
:1039E0004B46424600200021FEF758FC01231AF402
:1039F0008065804689460D937FF417AF9FED367B37
:103A00000EAB06268DED087B0C9326E70424DDE93A
:103A10000623DDE90401374DCDF88CA0CDF888B040
:103A20002095219417B0BDE8F04FFFF7D7BA0C9B53
:103A3000681EDFF8C4C018440DE0ACFB0721C908BC
:103A400001EB8102A7EB42023032092F00F8012F6F
:103A500027D90F461D46202D05F1010306F1FF363B
:103A6000EBD120254BE70022DDE90A011D4BFEF7D3
:103A700017FD00287FF427AF002F5AD1013722E726
:103A80000AF00303012B75D0202D3FF473AF0D9B7B
:103A9000BBB32D2205F158036B4403F8202C0135EC
:103AA00068E7202BDDD0AEB30C9A1E4415443022BB
:103AB00001E0B3422ED00133202B05F8012FF8D1BD
:103AC000CFE71D46C5E600BF0000000065CDCD4133
:103AD0000000000065CDCDC10000000080842E41B3
:103AE000FFFFEF7F0000E03F67666666D4B8001016
:103AF000DCB80010E4B80010CDCCCCCC202D3FF4C5
:103B000039AF1AF0040F0DD11AF0080F3FF432AF9D
:103B10002022BFE72E2103F158026A4402F8201C3C
:103B20005D1CECE62B22B5E7E3077FF5E8AE013438
:103B3000E5E6FA077FF5C7AEA0E70BF1FF3BAB4523
:103B40003FF609AFA0E70324DDE90623DDE9040120
:103B50000A4DCDF88CA0CDF888B061E7084B264619
:103B600003EBC40393ED007B0EAB8DED087B0025CA
:103B70000C9372E6BBF1000F86D0E1E6E0B80010CE
:103B800048BA00102DE9F04F9A469BB0249C964D00
:103B90000B94964C0B1E18BF834625609AF80000C4
:103BA000934C0A9308BFA3460992002800F0BC82F8
:103BB0004FF000090AE04A46099B0A9909F10109F8
:103BC000D8479AF80000002800F0CE8025280AF196
:103BD000010AF0D10023524612F8010BA0F1200196
:103BE00010290AD8DFE801F04009093C0909090950
:103BF00009090938093409093000A0F130010929FF
:103C000040F28C802A2800F0F58000210C912E28AB
:103C100000F099800027A0F1680112292DD8DFE873
:103C200011F057012C0051012C0045012C002C00F3
:103C30002C002C002C002C002C0027002C002C0029
:103C40002C002C002C002700924643F00103C2E711
:103C5000924643F00203BEE7924643F00403BAE7FC
:103C6000924643F01003B6E7924643F00803B2E7EA
:103C70009AF8010043F4807301326728924600F2FB
:103C80008280242840F2C680A0F12502422A00F258
:103C9000C180DFE812F05F01BF00BF00BF00BF00BE
:103CA000BF00BF00BF00BF00BF00BF00BF00BF001C
:103CB000BF00BF00BF00BF00BF00BF00BF00BF000C
:103CC000BF00BF00BF00BF00BF00BF00BF00BF00FC
:103CD000BF00BF00BF00260145012601BF00BF0095
:103CE000BF00BF00BF00BF00BF00BF00BF00BF00DC
:103CF000BF00BF00BF00BF00BF00BF00D301BF00B7
:103D0000BF00BF00BF00BF00BF00BF00BF00BF00BB
:103D1000D3016701D301260145012601002100E0FE
:103D2000013201EB810100EB410110789246A0F1D4
:103D30003004092CA1F13001F2D92E280C9102F1A6
:103D400001027FF467AF9AF801001146A0F1300636
:103D5000092E43F4806340F231812A2800F03E812D
:103D600092460027013256E74C46099B994501D3FC
:103D700003F1FF394A460020099B0A99D84720469B
:103D80001BB0BDE8F08FA0F16902D2B20F2A41D872
:103D9000012649F2410196400E4040F001810A2A75
:103DA0003FD0072A36D10B9C54F8042B002A00F090
:103DB000288143F021010DF1480E704603E0202ECA
:103DC00000F029811A4602F00F052B46092D94BFF9
:103DD000303337330F2A00F8013B06F101064FEA72
:103DE0001213ECD817E100BF853B001018310020FA
:103DF000D92F00100B9C9AF8010054F8045B9246EE
:103E0000002DBDBF694243F002030C910C950B9449
:103E10000132FCE64A46099B0A9909F10109D84793
:103E2000CFE60B9951F8048B98F800201046002F2C
:103E300040F0E18072B16FF0010C0CF1010C4646CC
:103E4000C44401E0664503D016F8014F002CF9D1B7
:103E5000A6EB080613F4806C02D0BE4228BF3E4693
:103E600013F0020400F08781002A00F02B81BCF1DE
:103E7000000F00F041810B940D964A46DDE909548C
:103E80000E464F4408E02B462146D84718F8010F4C
:103E900009F1010910B14A464F45F4D131460B9C56
:103EA0000D9E002C40F00E810B918AE69AF80100DD
:103EB0006C287FF4DFAE9AF8020043F440730AF1F5
:103EC0000302DAE69AF8010043F400730132D4E603
:103ED0009AF80100682800F0208143F08003013245
:103EE000CBE6672800F0E780472800F000814528EE
:103EF00000F0FF800B9C04930C9B0734CDE9027308
:103F000024F007031C46DDE90931F4E802674A465C
:103F10005846CDE900670B94FFF70AFA814650E650
:103F200046280B9C08BF43F0200304930C9B0734E6
:103F3000CDE9027324F007031C46DDE90931F4E8FA
:103F400002674A465846CDE900670B94FFF720FC0C
:103F5000814636E64A462520099B0A9909F101095E
:103F6000D8472EE60B9A9C0702F1040709F10106D7
:103F700040F1E6801078099B4A460A99D8470C9B85
:103F8000012B40F22C81DDE90954994432462B463D
:103F9000214620200136D8474E45F7D10B9710E631
:103FA0006F2800F08B8040F26581782800F008814E
:103FB0004FF00A0823F01003C44647E0002707EB40
:103FC000870700EB4700A0F1300711F8010FA0F1BF
:103FD0003002092AF3D98A464A1C1CE60B9C9AF83F
:103FE000020054F8047B0AF1020A0AF101020B9460
:103FF00027EAE7770FE6002A3FF42CAF07F1FF3CF2
:104000001BE723F0100113F4806241F021013FF41B
:10401000D2AE0DF1480E08231020059300234A4626
:10402000CDE9023006915846DDE90931CDE900E6D7
:104030000497FFF721F80B948146C2E5582879D000
:10404000622840F051824FF00208C44613F48060A9
:104050006DD123F00C0313F4007240F0C2800B9971
:1040600004310D9113F4807140F02E825E060B9A9C
:1040700040F1AA801278002A40F0DA8023F0100381
:10408000002800F0D58011460DF1480E06930C9BD8
:10409000CDF80CC0CDE90473019100234A46029388
:1040A0005846DDE90931CDF800E0FEF7E5FF0D9B4C
:1040B00081460B9385E543F400631BE74FF0080846
:1040C000C446C3E70C9B4C46B3427FF6EDAE0F46A9
:1040D0004B44A3EB0609DDE9096522463346294630
:1040E00020200134D8474C45F7D13946DCE643F46B
:1040F000006343F02003FDE60F460B94DDE909540D
:104100004A462B462146D84718F8010F09F1010904
:104110000028F5D139460B9CC3E69AF8020043F01B
:10412000C0030AF10302A8E5044681461DE623F018
:104130000D0390E74FF0100843F02003C44685E7D5
:104140000C9B012B45D9DDE909544E4609F1FF3896
:10415000984432462B46214620200136D847464512
:10416000F7D10C9B324699440B9B1878DDE9093155
:10417000D8470B9725E50C9BB34240F2EE81CDE981
:104180000D48DDE9095488464B449E1BCDF82CC0F0
:104190004A462B462146202009F10109D847B1455E
:1041A000F6D14146DDF838800C9BDDF82CC00D9C23
:1041B00098F800205E1C1046002A7FF458AE73E683
:1041C0004FF01008C44641E71D064CBF1288126824
:1041D00051E713464A461878DDE90931D847B14618
:1041E000DCE60B9C073424F007042246656852F88D
:1041F000084B0B9254EA050240F02C8123F0100387
:10420000002800F0278100260DF1480E06930C9B34
:104210004A46CDE904730023CDE900E6CDF80CC091
:1042200002935846DDE90931FEF726FF8146C8E4CE
:1042300013F0200F14BF412061200DF1480E764687
:10424000A0F10A0803E020293FF420AF2246B2FB88
:10425000FCF40CFB1425E8B2092D00F130058ABFEF
:104260004044E8B2C0B2624506F8010B01F1010119
:10427000E9D20BE723F0100269280D9240F06F811C
:1042800013F4806204D04FF4806223F011030D9385
:104290000D9B13F4007640D10B9B03F104080D9B9A
:1042A00013F4807040F09880590640F1C6800B9B53
:1042B00019780C46CB0F002900F0B98022460DF189
:1042C000480E74461646DFF8A0C201E020280FD041
:1042D0003546ACFB0621C90801EB8102A6EB420280
:1042E0003032092D0E4600F1010004F8012BEDD803
:1042F0000D9ACDE9010306920C9ACDE904720A23C6
:104300004A4603935846DDE90931CDF800E0FEF74F
:10431000B3FECDF82C80814653E40B9C073424F087
:10432000070421460846636850F8081BDC0F0B9011
:1043300051EA030000F0C3800A46191E48DB134609
:104340000DF1480EF4460026CDE90E94DFF81882F0
:1043500001E0202E2DD05A1842F10002A8FB02598C
:1043600029F0030505EB9905521B1C469B1A61F1C8
:10437000000508464FF0CC3101FB03F108FB0511A5
:10438000A3FB08531944052305F00109A9FB0339D0
:104390009B180A2C03F130034FEA550570F1000019
:1043A0000CF8013B06F1010645EAC1734FEA5101E1
:1043B000CFD2DDE90E940D9B4A4606930C9BCDE9C6
:1043C0000164CDE904730A23CDF800E0039328E7E4
:1043D000524261EB4101B2E70B9B1968CB0F0029F8
:1043E00000F0AB8081EAE172A2EBE1720DF1480EC0
:1043F0007046DFF874C101E0202E10D01546ACFBEA
:104400000241C90801EB8104A2EB440404F130022B
:10441000092D00F8012B06F101060A46ECD80D9A89
:10442000CDE9016306920C9ACDE9047267E7002A90
:104430003FF445AF0DF1480E5AE713F0800F0B9B88
:1044400000F08180B3F9001081EAE174A4EBE1741B
:10445000A4B22FE713F0200F14BF412261220DF107
:10446000480E0A3ACDE90D97CDF844B000267746BC
:10447000F3469146CDE90F3C03E0202E17D00446C9
:104480000D46294642460023204607F025F9D2B2C0
:10449000092A02F1300388BF02EB09034445DBB26D
:1044A00075F1000507F8013B06F10106E5D2DE468D
:1044B000DDE90D97DDE90F3CDDF844B0A6E6002A02
:1044C00047D1134611463BE70B990968A1B923F080
:1044D000100388B10DF1480E06930C9BCDF80CC06B
:1044E000CDE904730192D8E513F480627FF4CBAE7A
:1044F00023F010030D93CBE613F0200F14BF4120DF
:1045000061200DF1480E7646A0F10A0802E0202A4B
:10451000E2D02146B1FBFCF40CFB1415E8B2092DE6
:1045200000F130058ABF4044E8B2C0B2614506F8E8
:10453000010B02F10102EAD2CEE7002A3FF456AFA6
:104540000DF1480E6BE7196881EAE174A4EBE174A0
:10455000B0E600260DF1480E2DE701362BE64FF0B0
:104560000A081346C44671E5CDCCCCCC70B5944650
:104570001E4605460C4684B04FF0FF32634602A942
:1045800000960348CDE90254FFF7FCFA04B070BD71
:104590002533001010B5094B84B01C684CB103469C
:1045A00000914FF0FF3203A90548A047012004B055
:1045B00010BD00F07DF9204604B010BD1831002078
:1045C0001D33001000BEFDE708B5FFF7FBFF00BF7D
:1045D00038B5064C064DFDF785F8AC4204D254F8C8
:1045E000043B9847AC42FAD338BD00BF58B700101F
:1045F00068B700100368084611461847437D2DE947
:10460000F04781460F461646002B43D0002A3BDD7B
:10461000037D00204D1E014615F8012FDFF8848030
:104620000A2A01F101040ED0A6421CD02B782146A3
:10463000A3F10D03B3FA83F315F8012F5B090A2ADE
:1046400001F10104F0D1002BEED18142A1EB000178
:1046500038441BDC02214046D9F800309847A64276
:1046600008D02046E2E7864204DD311AD9F800304E
:1046700038449847374417F8013CA3F10D03B3FAC7
:1046800083F35B0989F81430BDE8F087D9F800306E
:104690009847DFE73846D9F800301146BDE8F047C3
:1046A000184700BF98BA00100B682DE9F041802B25
:1046B0000D46064605D05A1C2B442A601E71BDE8E3
:1046C000F0810F4B1C68A4B10E4F01F1040801E00A
:1046D000246974B12368002BFAD03B680BB1A34264
:1046E000F6D1204641462A68FFF788FF2469002C4E
:1046F000F0D1002301222B442A601E71BDE8F08115
:104700000C2D0020142D00202DE9F04782B00D461D
:10471000924699460746FCF71FFE4FF0FF366FF0B2
:1047200000442F4A821841F10003964274EB0301C2
:104730003CBF324623462B4806F0E2FF6B1C804606
:1047400003D1384606F0D8FE0546274B274E1C6895
:10475000274BB9F1000F18BF1E46B4B1BAF1000FD4
:104760001AD1DFF8909001E0246974B12368002B1E
:10477000FAD0D9F800300BB19C42F5D120462A4638
:104780003946B0472469002CF0D1B8F1000F1FD191
:10479000284602B0BDE8F0874FF00A0ADFF85490CF
:1047A00002E02469002CF0D02368002BF9D0D9F85E
:1047B00000300BB1A342F4D12A4639462046B04717
:1047C000012220460DF107018DF807A0B047E8E768
:1047D000044806F085FF284602B0BDE8F08700BF18
:1047E00040420F00E81600200C2D0020F545001077
:1047F000FD450010142D00200A4A13684BB1834276
:1048000002D109E0984207D003F110021B69002B86
:10481000F8D101B1106070470029FCD10369136021
:10482000016170470C2D002000F0E0BAF0B583B0B4
:1048300006468DF80700FCF78FFD4FF0FF356FF04F
:104840000044174A821841F10003954274EB0301BA
:104850003CBF23462A46134806F052FF124B074638
:104860001C689CB1114D01E024697CB12368002BC8
:10487000FAD02B680BB19C42F6D1204601220DF1F3
:104880000701FFF7BBFE2469002CEFD117B93046B2
:1048900003B0F0BD034806F023FF304603B0F0BD7F
:1048A00040420F00E81600200C2D0020142D00209F
:1048B00038B5044606F020FE012305461A46204678
:1048C0002946FFF721FF084B1C682CB163682BB108
:1048D00098472469002CF9D1284638BD2469002C5A
:1048E000F4D1284638BD00BF0C2D00202DE9F04141
:1048F000A2B004460D46FCF72FFD4FF0FF376FF0D6
:104900000046274A821841F10003974276EB0301E3
:104910003CBF3A463346234806F0F2FE00262B46BB
:1049200007462246204801A90196FFF71FFE019B7A
:1049300006467BB91D4B1C682CB1636843B1984790
:104940002469002CF9D10FBB304622B0BDE8F081BC
:104950002469F1E7DFF85480D8F80050EDB1144C29
:1049600001E02D6975B12B68002BFAD023680BB1DB
:10497000AB42F6D12846019A02A9FFF73FFE2D6906
:10498000002DF0D1D8F800400195D5E7054806F094
:10499000A7FE304622B0BDE8F0810195D3E700BF05
:1049A00040420F00E8160020A94600100C2D002000
:1049B000142D00200FB400B583B004A951F8040BE6
:1049C0000191FFF793FF03B05DF804EB04B070476B
:1049D000704700BF0022014B1A70704775310020EC
:1049E0004B79FF2B0BD1887948B9CB79012B07D1B3
:1049F000082A05D9034B8A7809201A7070470020CD
:104A0000704700BF7531002001207047012901D097
:104A10000120704708B5104B91881B78994201D04E
:104A2000002008BD5378012B08D0022BF8D10021BB
:104A300064220846FCF792FD012008BD5188CB0591
:104A40004BBF4A0A4A0A10464FF0FF3002F00102FB
:104A500001F07F01FCF700FE75310020004870472F
:104A600064BB0010012907D15378012B02D1938830
:104A7000072B03D000207047012070471146A62362
:104A8000014A01F041BA00BFBCBA0010034601223E
:104A900001481A70704700BF9CBA001008B50B6837
:104AA000B3F5966F00D008BD00224FF0FF301146DD
:104AB000FCF7D2FD024A034B10601960704700BF3B
:104AC000AC2C0020B02C0020184B70B51A68002ABE
:104AD00028D0EFF3108172B6D2E8CF4F0120002C1E
:104AE000FAD1C2E8440F002CF6D1BFF35F8F002249
:104AF0000F4C186859602270C0E88F2F81F310881E
:104B0000002400250B4E3078FBF7DEFD20B9002491
:104B100000252046294670BD3078FBF7E5FD20468C
:104B2000294670BD4FF47A740025EBE7243100204C
:104B30007731002076310020014B1878FBF7D4BD87
:104B40007631002038B5044600200D4601F008FB00
:104B5000A8B3002001F01AFB88B3FCF7FDFB4FF06F
:104B6000FF3E6FF0004C174A821841F10003964552
:104B70007CEB03013CBF72466346134806F0C0FD60
:104B8000E8B1002001F0ECFA58B900214FF0FF30F5
:104B900000F012FD6FF002040B4806F0A1FD204664
:104BA00038BD002001F0F2FA0028EED021462A4656
:104BB000002001F0F7FA04460028EDD1EAE76FF093
:104BC0000204ECE740420F005831002008B5FCF722
:104BD000C3FB4FF0FF3E6FF0004C0F4A821841F1CB
:104BE000000396457CEB03013CBF724663460B48CD
:104BF00006F086FD70B14FF0FF30002100F0DCFCC4
:104C0000002001F015FB0028F5D1BDE8084003485D
:104C100006F066BD08BD00BF40420F0058310020BD
:104C20002DE9F84307460E46FCF796FB4FF0FF359B
:104C30006FF00044334A821841F10003954274EB4F
:104C400003013CBF2A4623462F4806F059FD08B908
:104C5000BDE8F883002001F083FA002848D0002E38
:104C600041DD0025DFF8A480DFF8A49013E02246A0
:104C7000002001F023FB002104464FF0FF3000F03C
:104C80009BFC002001F0D4FAFCF766FBC8E90001A8
:104C90002544AE4227DD002001F032FB741B844224
:104CA000A8BF04467919002CE1D121464FF0FF300E
:104CB00000F082FC204601F0BBFA204601F050FAD9
:104CC00088B1204601F01CFB0028E2D1FCF744FB30
:104CD000D8F80030D8F8042013EB090342F10002A1
:104CE00083428A41D5D20848BDE8F84306F0F8BCB3
:104CF00000200021054BC3E90001BDE8F84302484C
:104D000006F0EEBC40420F0058310020581A002037
:104D100020A1070030B5002185B02E4806F0F8FC30
:104D2000F0B92D4B1A68CAB1EFF3108172B6D2E810
:104D3000CF5F0124002DFAD1C2E8454F002DF6D1F6
:104D4000BFF35F8F254C1D6822785960D3B20122D2
:104D50002270C5E88F0F81F31088CBB105B030BD4C
:104D600000214FF0FF3000F027FC002001F00EFA88
:104D70000446184806F0B4FC002CEFD0184B1B6812
:104D8000002BEBD0174A106805B0BDE8304018473B
:104D9000FCF7C2F80446FCF7DFFA4FF0FF3C6FF077
:104DA000004510F57A7241F10003944575EB03015B
:104DB00038BF2B464FF000014FF0010520460A4C4A
:104DC00038BF6246CDE901150094FCF7A9F805B09B
:104DD00030BD00BF58310020243100207731002041
:104DE000AC2C0020B02C0020C94A00104FF05043DA
:104DF00030B585B01C68FCF78FF8FCF7A3F9A0422A
:104E000002D0002005B030BD00212A4B08461B7897
:104E100001F046FD28480368002B47D00120FBF72E
:104E200001FE0346254C2649C0B22370FBF778FCEF
:104E300020780121FBF732FC0E20FBF761FC40BB20
:104E4000204B0125C3E90000FCF766F80446FCF797
:104E500083FA4FF0FF3E6FF0004C10F57A7241F18B
:104E6000000396457CEB03014FF000012046164CF1
:104E70003CBF72466346CDE901150094FCF750F83B
:104E80000028BEDB01211148FFF7B6FC012005B068
:104E900030BD0120FBF7BEFB01460A48FBF71EFEB2
:104EA00000220E200A49FBF76BFCEBE7FBF7FAFD4B
:104EB000B4E700BFC4BD0010583100207631002097
:104EC000154D001024310020C94A0010741500202F
:104ED000394B00100048704700BC00100048704774
:104EE000ACBB001038B5184B04461A780AB344B965
:104EF00040F209424FF44173144D6A8013482B80ED
:104F000038BD052C1AD8124B104D53F824102846E2
:104F10000023013903E0132B20F8022F10D011F8E1
:104F2000012F0133DBB2002AF5D15B0043F440735B
:104F3000E4E71121184600F025F8D8E7002038BD35
:104F40004FF44A73DAE700BF60310020E42C002000
:104F500094BB001000B545F247308BB0FCF770FBF6
:104F600001220346092101A89847DDE903320449DB
:104F700012BA1BBAC1E900230BB05DF804FB00BFF5
:104F80004C310020012901F1FF3300F0B3805D496D
:104F90000A784FEA121C9F2A8CBF0CF1370C0CF1D7
:104FA000300C012B80F800C000F0A78002F00F0247
:104FB000092A8CBF37323032022B427000F09D80BC
:104FC0004A784FEA121C9F2A8CBF0CF1370C0CF167
:104FD000300C032B80F802C000F08F8002F00F022B
:104FE000092A8CBF37323032042BC27000F0858022
:104FF0008A784FEA121C9F2A8CBF0CF1370C0CF1F7
:10500000300C052B80F804C077D002F00F02092A7B
:105010008CBF37323032062B42716ED0CA784FEADD
:10502000121C9F2A8CBF0CF1370C0CF1300C072B93
:1050300080F806C061D002F00F02092A8CBF373217
:105040003032082BC27158D00A794FEA121C9F2ABD
:105050008CBF0CF1370C0CF1300C092B80F808C018
:105060004BD002F00F02092A8CBF373230320A2BA4
:10507000427242D04A794FEA121C9F2A8CBF0CF12F
:10508000370C0CF1300C0B2B80F80AC035D002F035
:105090000F02092A8CBF373230320C2BC2722CD04F
:1050A0008A794FEA121C9F2A8CBF0CF1370C0CF145
:1050B000300C0D2B80F80CC01FD002F00F02092A13
:1050C0008CBF373230320E2B427316D0CA79110999
:1050D0009F2A8CBF373130310F2B81730DD002F0F6
:1050E0000F02092A94BF30323732102BC27318BF17
:1050F000103002D00023037070471844002303705F
:10510000704700BF4C31002070B500F033F90C231C
:1051100040261B4CFF22A3670E201A49FBF730FBE9
:10512000194B32460021184606F010F803460021BC
:1051300001258020154A58849A60843A5D701E8348
:105140001E875960C2F88410C2F8801002F5807280
:10515000DA60DA62803A83F8211083F83B105962F2
:105160009A624FF0005606F0C3FA4FF480320849B5
:10517000084B25642846E664C4F89010DA6470BDD4
:1051800000001150A9030020182D002084001050A9
:1051900010D001000020115001210E20FBF77EBA33
:1051A00000220248114600F005B900BF382D00204A
:1051B000044B197021B14FF40032034BC3F8902017
:1051C000704700BF72310020002011500B785B0641
:1051D00002D14B78052B00D070474B88014ADBB2D7
:1051E0001360704700001150CB782DE9F04103F0B7
:1051F000030EBEF1010FC3F301005DD0002791F84B
:1052000002C0354C0CF07F035E00898806EBDC128F
:1052100004EB42124FEADC15D076C1F30A0185F0A7
:105220000100507082F802C01183D77018B2DA0002
:105230008DBB2A48043204EB831C02EB0008CCF837
:10524000088017508BB3264ADB001A44CCF80420A0
:10525000244B3F311A6821F03F01BEF1020F08BF15
:10526000490011441960204B771904EB4717994204
:10527000FA602CD82E4404EB4613D97E82F0A0426B
:1052800082F480125B6842EA816242F000421A6056
:105290000120BDE8F081DFF844C004EB83186244CC
:1052A000C8F828204CF830704BB900220F4904EBA5
:1052B0004513D9605A60EBE70020BDE8F081DB00C0
:1052C00003F1A04303F58013C8F82430C0E7FCF7CE
:1052D00003FAFA68CEE700BF182D002080001050B6
:1052E0000400105020310020FF0F1050000110501A
:1052F00006F0FEB98C4608B5114607481A460CF070
:105300007F034FEADC1C0CEB430C00EB4C1000F06D
:1053100051F8012008BD00BF182D0020CB0911F065
:105320007F0103D1064AC3F102009066054803EBF2
:1053300041034FF40062002100EB431006F0DCB99A
:1053400000201150182D002011F07F0300D170476C
:10535000002210B4C809064C00EB430004EB4013D4
:105360006FF4006118465DF8044BDA7006F0C4B9BA
:10537000182D00204FF0805209480A4908B50A4B01
:1053800002600A609968C94311F08051FAD14FF464
:105390008052064805F0DAFE0922054B5A6708BD1F
:1053A0000020024000300240000002400000105087
:1053B0000000115000234FF0010C10B580F81AC006
:1053C0008282C3820161044606F08EF920B14FF457
:1053D0000032074BC3F89020204606F071F910B157
:1053E0000123237710BD2046BDE8104006F06CB9BC
:1053F000002011502DE9F04100241D4E05462346A2
:105400003278DFF878801B4F0DE03B6813EB4413D4
:1054100025D0DB682846984732780134E4B2511C25
:10542000A142234606DBA242A3EB0203EDD808EB20
:105430004313EEE7104C54220021204605F086FE6F
:105440004FF0FF33251D6360C5E90133EB6004F1C4
:1054500014002022BDE8F041FF2105F077BE4FF097
:10546000E023D3F8F03DDB0700D500BEBDE8F081B6
:1054700071310020BC270020C428002014BC00107B
:10548000704700BF704700BF002070470020704782
:10549000704700BF704700BF704700BF704700BF34
:1054A000024B5878003818BF01207047C4280020EC
:1054B000024B1878C0F38000704700BFC42800205A
:1054C0002DE9F047DFF8E8A09AF80030FF2B02D072
:1054D0000120BDE8F0870E4600293ED0002154226D
:1054E0000746294805F032FE0022284C284B20466A
:1054F0001A70FBF7D7FA274B27481C60274CFBF79D
:10550000DFFA204601F0B0FD254A264B264D1460F7
:1055100063B32846FFF7BAFA244B2A7818600024B0
:10552000DFF890902346DFF884800EE0D8F8003052
:1055300013EB441311D05B687BB198472A78013490
:10554000E4B2511CA142234612DBA242EED89B1AC0
:1055500009EB43135B68002BEFD14FF0E023D3F846
:10556000F03DDB0700D500BE0020B2E72A78D6E781
:10557000314638468AF80070FFF7C6FD0028ECD0A7
:105580003846FFF709FEA3E7C4280020BC28002006
:105590007331002018290020A01500208C15002050
:1055A0001C2900208D4A001071310020BC270020EA
:1055B000A815002014BC00102DE9F04FDFF8C892A8
:1055C0008BB099F80030FF2B00F0F180A84CA94D6A
:1055D000DFF8B0A2DFF8B4B226687369EFF3108287
:1055E00072B6D3E8CF0F01210028FAD1C3E8401FDB
:1055F0000028F6D1BFF35F8FB261304607A901F0F2
:1056000081FB00237269C2E88F3FB36983F310887E
:10561000002800F0CC809DF81D30013B072B00F2E4
:105620007D83DFE803F0A7B1959D8E350A04089BC2
:10563000002BD1D009989847CEE79DF8201001F0B3
:105640007F0605EB460000EBD11090F8343023F0D4
:10565000010380F8343090F8343023F0040380F8EC
:105660003430002E00F0A680037D9AF8002093428B
:1056700080F09380804A126812EB431300F0908010
:105680009E699DF82120099B9DF81C00B047A3E767
:105690009BF80030002B00F083809BF80030013B2A
:1056A000DBB28BF800309BF8003003F0FF00002BDA
:1056B00092D1704F9DF81C803B7843F001033B7002
:1056C00097F8343060F3000387F8343097F83430BB
:1056D00060F3820387F8343097F8353060F30003C5
:1056E00087F8353097F8353060F3820387F8353026
:1056F00000F06AFC9DF8203003F06002602A6CD054
:10570000402A7CD003F01F03012B00F0C180022B44
:1057100000F08180002B60D1202A00F0E981002A6E
:105720005BD19DF82130092B57D8DFE813F0B00189
:10573000A2015600C101560095016B01560060019F
:10574000F4002B78D9077FF547AFFFF7A7FE43E7B3
:10575000EB78DA077FF540AF0898FFF793FE3BE759
:105760002B78D8077FF538AF2878C0F3C000FFF753
:1057700093FE31E79DF81C00FFF73CFE00F01AFC99
:105780009DF82030AB7027E79DF81C00FFF732FE34
:1057900000F010FCFFF77EFE1EE7501C984211DA65
:1057A0004FF0E023D3F8F03DDC0700D500BE0BB08E
:1057B000BDE8F08F099B9DF821209DF81C0000F0AA
:1057C00017FC09E79B1A2D4A02EB431358E7FFF732
:1057D00085FB0246002840F082814FF0E023D3F899
:1057E000F03DDE0700D500BE9DF81C000021FFF74C
:1057F00095FD80219DF81C00FFF790FDECE6204808
:1058000000F0E2FB0121404608AAFFF72BF900282F
:105810007FF4E2AEE8E79DF8241011F0700FDCD1C0
:1058200001F07F0607EB4600164B00EBD1101B780A
:10583000007D7600019698424FEAD116009659D322
:105840005E1C8642C0F26681C01A0C4B03EB401608
:10585000002A00F06381706900F0B6FB0121404628
:10586000736908AA984700287FF4B6AEBCE700BF6A
:105870001C290020C4280020BC27002014BC0010D4
:10588000654A001071310020A815002073310020F6
:105890009DF824300F2BA7D8AE4A3B441B791278D1
:1058A000934232D3511C99429EDBAB4E9B1A06EBBE
:1058B0004316706900F088FB01214046736908AA0D
:1058C000984700287FF488AE9DF8203013F06006DA
:1058D0008AD19DF821300A3B012B85D800F074FB5A
:1058E0009DF821300A2B00F0F281404608A900F013
:1058F000F1FA71E6994B1B6803EB4016002A00F0A1
:105900000D81002E3FF470AFA5E7944A166816EBA0
:105910004316CED168E77B789DF822609E4200F066
:105920004F817B78002B40F0BE817E70002E00F00E
:105930004581701EC0B2FFF7D1FA0346002800F07F
:105940005F814278022A40F05B81C17903F1090648
:10595000C1F340121201C1F3801142EA41123146F3
:10596000387820F0300002433A705A88CDF80C8025
:105970009A180192019B8B4240F2A4814A780B2A2B
:1059800000F0AF810123042A40F03A810026019AF9
:105990000096521A92B202926E4A049312781DE057
:1059A0006E4B1B6813EB461800F02A81029AD8F858
:1059B000103003980591984708280246059906F18A
:1059C000010303D90298904280F0FF80DEB2614B60
:1059D00000961A78531C9E4200F31281009BB2423B
:1059E000A3EB0202DCD85C4B03EB4218DEE77B78CA
:1059F00040468DF81A300DF11A02012308A900F073
:105A000083FAE9E5BDF82200030A013B020AC0B2AD
:105A10000E2B3FF6E9AE01A151F823F0315C0010E6
:105A2000CD5A00106D5C0010E9570010E9570010C6
:105A30004F5C0010CD5A0010E9570010E9570010D4
:105A4000E9570010E9570010E9570010E957001016
:105A5000E9570010235C001008A800F0BBFA40468C
:105A60009DF82210FFF79CFB3B7843F002033B704C
:105A7000B2E5BDF82230012B7FF4B6AE3B7840464C
:105A800023F0080308A93B7000F024FAA4E540467F
:105A90003B789A0802F00202C3F340131343ADF8B7
:105AA0001A300DF11A02022308A900F02DFA93E52D
:105AB000BDF82230012B7FF497AE3B78404643F08F
:105AC000080308A93B7000F005FA85E5022A3FF4B7
:105AD0007EAEFFF7DBFC024600283FF485AE404671
